{"abi":[{"type":"constructor","inputs":[],"stateMutability":"nonpayable"},{"type":"receive","stateMutability":"payable"},{"type":"function","name":"DEFAULT_ADMIN_ROLE","inputs":[],"outputs":[{"name":"","type":"bytes32","internalType":"bytes32"}],"stateMutability":"view"},{"type":"function","name":"SPENDER","inputs":[],"outputs":[{"name":"","type":"bytes32","internalType":"bytes32"}],"stateMutability":"view"},{"type":"function","name":"closeWallet","inputs":[],"outputs":[],"stateMutability":"nonpayable"},{"type":"function","name":"getRoleAdmin","inputs":[{"name":"role","type":"bytes32","internalType":"bytes32"}],"outputs":[{"name":"","type":"bytes32","internalType":"bytes32"}],"stateMutability":"view"},{"type":"function","name":"grantRole","inputs":[{"name":"role","type":"bytes32","internalType":"bytes32"},{"name":"account","type":"address","internalType":"address"}],"outputs":[],"stateMutability":"nonpayable"},{"type":"function","name":"hasRole","inputs":[{"name":"role","type":"bytes32","internalType":"bytes32"},{"name":"account","type":"address","internalType":"address"}],"outputs":[{"name":"","type":"bool","internalType":"bool"}],"stateMutability":"view"},{"type":"function","name":"owner","inputs":[],"outputs":[{"name":"","type":"address","internalType":"address"}],"stateMutability":"view"},{"type":"function","name":"renounceOwnership","inputs":[],"outputs":[],"stateMutability":"nonpayable"},{"type":"function","name":"renounceRole","inputs":[{"name":"role","type":"bytes32","internalType":"bytes32"},{"name":"callerConfirmation","type":"address","internalType":"address"}],"outputs":[],"stateMutability":"nonpayable"},{"type":"function","name":"revokeRole","inputs":[{"name":"role","type":"bytes32","internalType":"bytes32"},{"name":"account","type":"address","internalType":"address"}],"outputs":[],"stateMutability":"nonpayable"},{"type":"function","name":"setWithdrawer","inputs":[{"name":"withdrawer","type":"address","internalType":"address"},{"name":"limit","type":"uint256","internalType":"uint256"}],"outputs":[],"stateMutability":"nonpayable"},{"type":"function","name":"supportsInterface","inputs":[{"name":"interfaceId","type":"bytes4","internalType":"bytes4"}],"outputs":[{"name":"","type":"bool","internalType":"bool"}],"stateMutability":"view"},{"type":"function","name":"transferOwnership","inputs":[{"name":"newOwner","type":"address","internalType":"address"}],"outputs":[],"stateMutability":"nonpayable"},{"type":"function","name":"withdraw","inputs":[{"name":"_to","type":"address","internalType":"address"},{"name":"amount","type":"uint256","internalType":"uint256"}],"outputs":[],"stateMutability":"nonpayable"},{"type":"function","name":"withdrawLimit","inputs":[{"name":"","type":"address","internalType":"address"}],"outputs":[{"name":"","type":"uint256","internalType":"uint256"}],"stateMutability":"view"},{"type":"event","name":"OwnershipTransferred","inputs":[{"name":"previousOwner","type":"address","indexed":true,"internalType":"address"},{"name":"newOwner","type":"address","indexed":true,"internalType":"address"}],"anonymous":false},{"type":"event","name":"RoleAdminChanged","inputs":[{"name":"role","type":"bytes32","indexed":true,"internalType":"bytes32"},{"name":"previousAdminRole","type":"bytes32","indexed":true,"internalType":"bytes32"},{"name":"newAdminRole","type":"bytes32","indexed":true,"internalType":"bytes32"}],"anonymous":false},{"type":"event","name":"RoleGranted","inputs":[{"name":"role","type":"bytes32","indexed":true,"internalType":"bytes32"},{"name":"account","type":"address","indexed":true,"internalType":"address"},{"name":"sender","type":"address","indexed":true,"internalType":"address"}],"anonymous":false},{"type":"event","name":"RoleRevoked","inputs":[{"name":"role","type":"bytes32","indexed":true,"internalType":"bytes32"},{"name":"account","type":"address","indexed":true,"internalType":"address"},{"name":"sender","type":"address","indexed":true,"internalType":"address"}],"anonymous":false},{"type":"event","name":"SharedWallet__Withdrawal","inputs":[{"name":"_from","type":"address","indexed":true,"internalType":"address"},{"name":"_to","type":"address","indexed":true,"internalType":"address"},{"name":"amount","type":"uint256","indexed":false,"internalType":"uint256"}],"anonymous":false},{"type":"error","name":"AccessControlBadConfirmation","inputs":[]},{"type":"error","name":"AccessControlUnauthorizedAccount","inputs":[{"name":"account","type":"address","internalType":"address"},{"name":"neededRole","type":"bytes32","internalType":"bytes32"}]},{"type":"error","name":"OwnableInvalidOwner","inputs":[{"name":"owner","type":"address","internalType":"address"}]},{"type":"error","name":"OwnableUnauthorizedAccount","inputs":[{"name":"account","type":"address","internalType":"address"}]},{"type":"error","name":"SharedWallet__ExceededLimit","inputs":[{"name":"requestedAmount","type":"uint256","internalType":"uint256"},{"name":"limit","type":"uint256","internalType":"uint256"}]},{"type":"error","name":"SharedWallet__InsufficientBalance","inputs":[{"name":"requestedAmount","type":"uint256","internalType":"uint256"}]}],"bytecode":{"object":"0x608060405234801561001057600080fd5b50338061003757604051631e4fbdf760e01b81526000600482015260240160405180910390fd5b61004081610052565b5061004c6000336100a2565b50610137565b600080546001600160a01b038381166001600160a01b0319831681178455604051919092169283917f8be0079c531659141344cd1fd0a4f28419497f9722a3daafe3b4186f6b6457e09190a35050565b60008281526001602090815260408083206001600160a01b038516845290915281205460ff1661012d5760008381526001602081815260408084206001600160a01b0387168086529252808420805460ff19169093179092559051339286917f2f8788117e7eff1d82e926ec794901d17c78024a50270940304540a733656f0d9190a4506001610131565b5060005b92915050565b610934806101466000396000f3fe6080604052600436106100ec5760003560e01c8063a217fddf1161008a578063f2fde38b11610059578063f2fde38b146102a1578063f3fef3a3146102c1578063fbdacd40146102e1578063fce33f011461030157600080fd5b8063a217fddf14610223578063bc17c29014610238578063d547741f1461026c578063d892ddfc1461028c57600080fd5b806336568abe116100c657806336568abe146101a6578063715018a6146101c65780638da5cb5b146101db57806391d148541461020357600080fd5b806301ffc9a714610110578063248a9ca3146101455780632f2ff15d1461018457600080fd5b3661010b5734600360008282546101039190610801565b925050819055005b600080fd5b34801561011c57600080fd5b5061013061012b366004610814565b61032e565b60405190151581526020015b60405180910390f35b34801561015157600080fd5b50610176610160366004610845565b6000908152600160208190526040909120015490565b60405190815260200161013c565b34801561019057600080fd5b506101a461019f36600461087a565b610365565b005b3480156101b257600080fd5b506101a46101c136600461087a565b610391565b3480156101d257600080fd5b506101a46103c9565b3480156101e757600080fd5b506000546040516001600160a01b03909116815260200161013c565b34801561020f57600080fd5b5061013061021e36600461087a565b6103dd565b34801561022f57600080fd5b50610176600081565b34801561024457600080fd5b506101767fa2cac083293772ca6820c9740cb63f055c62ed365baba8fc5026f75b1d6bc37a81565b34801561027857600080fd5b506101a461028736600461087a565b610408565b34801561029857600080fd5b506101a461042e565b3480156102ad57600080fd5b506101a46102bc3660046108a6565b610473565b3480156102cd57600080fd5b506101a46102dc3660046108c1565b6104b3565b3480156102ed57600080fd5b506101a46102fc3660046108c1565b6105f3565b34801561030d57600080fd5b5061017661031c3660046108a6565b60026020526000908152604090205481565b60006001600160e01b03198216637965db0b60e01b148061035f57506301ffc9a760e01b6001600160e01b03198316145b92915050565b6000828152600160208190526040909120015461038181610641565b61038b838361064b565b50505050565b6001600160a01b03811633146103ba5760405163334bd91960e11b815260040160405180910390fd5b6103c482826106c4565b505050565b6103d1610731565b6103db600061075e565b565b60009182526001602090815260408084206001600160a01b0393909316845291905290205460ff1690565b6000828152600160208190526040909120015461042481610641565b61038b83836106c4565b610436610731565b600080546040516001600160a01b03909116914780156108fc02929091818181858888f19350505050158015610470573d6000803e3d6000fd5b50565b61047b610731565b6001600160a01b0381166104aa57604051631e4fbdf760e01b8152600060048201526024015b60405180910390fd5b6104708161075e565b6104dd7fa2cac083293772ca6820c9740cb63f055c62ed365baba8fc5026f75b1d6bc37a836107ae565b6001600160a01b03821660009081526002602052604090205481111561053b576001600160a01b0382166000908152600260205260409081902054905163ba7700b360e01b81526104a1918391600401918252602082015260400190565b600354811115610561576040516368f9d05360e01b8152600481018290526024016104a1565b806003600082825461057391906108eb565b90915550506040516001600160a01b0383169082156108fc029083906000818181858888f193505050501580156105ae573d6000803e3d6000fd5b506040518181526001600160a01b0383169030907fda80db8df5d81eb7001dc4ff34d3c0717def689e6532099dcd5ddf17841047649060200160405180910390a35050565b6105fb610731565b6106257fa2cac083293772ca6820c9740cb63f055c62ed365baba8fc5026f75b1d6bc37a83610365565b6001600160a01b03909116600090815260026020526040902055565b61047081336107ae565b600061065783836103dd565b6106bc5760008381526001602081815260408084206001600160a01b0387168086529252808420805460ff19169093179092559051339286917f2f8788117e7eff1d82e926ec794901d17c78024a50270940304540a733656f0d9190a450600161035f565b50600061035f565b60006106d083836103dd565b156106bc5760008381526001602090815260408083206001600160a01b0386168085529252808320805460ff1916905551339286917ff6391f5c32d9c69d2a47ea670b442974b53935d1edc7fd64eb21e047a839171b9190a450600161035f565b6000546001600160a01b031633146103db5760405163118cdaa760e01b81523360048201526024016104a1565b600080546001600160a01b038381166001600160a01b0319831681178455604051919092169283917f8be0079c531659141344cd1fd0a4f28419497f9722a3daafe3b4186f6b6457e09190a35050565b6107b882826103dd565b6107e75760405163e2517d3f60e01b81526001600160a01b0382166004820152602481018390526044016104a1565b5050565b634e487b7160e01b600052601160045260246000fd5b8082018082111561035f5761035f6107eb565b60006020828403121561082657600080fd5b81356001600160e01b03198116811461083e57600080fd5b9392505050565b60006020828403121561085757600080fd5b5035919050565b80356001600160a01b038116811461087557600080fd5b919050565b6000806040838503121561088d57600080fd5b8235915061089d6020840161085e565b90509250929050565b6000602082840312156108b857600080fd5b61083e8261085e565b600080604083850312156108d457600080fd5b6108dd8361085e565b946020939093013593505050565b8181038181111561035f5761035f6107eb56fea2646970667358221220fa972712e37d6bc5e2567285785cdb7bf0483123a9590152aa9006d83d09cf5864736f6c63430008140033","linkReferences":{}},"methodIdentifiers":{"DEFAULT_ADMIN_ROLE()":"a217fddf","SPENDER()":"bc17c290","closeWallet()":"d892ddfc","getRoleAdmin(bytes32)":"248a9ca3","grantRole(bytes32,address)":"2f2ff15d","hasRole(bytes32,address)":"91d14854","owner()":"8da5cb5b","renounceOwnership()":"715018a6","renounceRole(bytes32,address)":"36568abe","revokeRole(bytes32,address)":"d547741f","setWithdrawer(address,uint256)":"fbdacd40","supportsInterface(bytes4)":"01ffc9a7","transferOwnership(address)":"f2fde38b","withdraw(address,uint256)":"f3fef3a3","withdrawLimit(address)":"fce33f01"},"id":26}